:020000040800F2
:10000000C8730020550200081B63000871490008EE
:1000100017630008B92700086F750008000000008A
:100020000000000000000000000000009D0100082A
:10003000873B000800000000F1010008496D00083E
:100040006F0200086F0200086F0200086F020008CC
:100050006F0200086F0200086F0200086F020008BC
:100060006F0200086F0200086F0200086F020008AC
:100070006F0200086F0200086F0200086F0200089C
:100080006F0200086F0200086F0200086F0200088C
:10009000BD2700086F0200086F0200086F02000809
:1000A0006F0200086F0200086F0200086F0200086C
:1000B0006F0200086F0200086F0200086F0200085C
:1000C0006F0200086F0200086F0200086F0200084C
:1000D0006F020008F16D0008556E0008596F0008A6
:1000E0006F0200086F0200086F0200086F0200082C
:1000F0006F0200086F0200086F0200086F0200081C
:100100006F0200086F0200086F0200086F0200080B
:100110006F0200086F0200086F0200086F020008FB
:100120006F0200086F0200086F0200086F020008EB
:100130006F0200086F0200086F0200086F020008DB
:100140006F020008292B00086F0200086F020008E8
:100150006F0200086F0200086F020008217100089A
:100160006F0200086F0200086F0200086F020008AB
:100170006F0200086F0200086F0200086F0200089B
:100180006F0200086F020008DFF80CD000F06AFF71
:1001900000480047C59C0008C87300202A4B196816
:1001A0000868B0E8F04F80F30988BFF36F8F4FF015
:1001B000000080F3118870470000000006480068C6
:1001C000006880F3088862B661B6BFF34F8FBFF353
:1001D0006F8F00DF00BF00BF08ED00E0DFF80C000C
:1001E000016841F470010160704700BF88ED00E0D4
:1001F000EFF30980BFF36F8F134B1A681EF0100FD7
:1002000008BF20ED108A20E9F04F106008B44FF0CD
:10021000500080F31188BFF34F8FBFF36F8F0BF047
:100220008BF94FF0000080F3118808BC196808684A
:10023000B0E8F04F1EF0100F08BFB0EC108A80F34A
:100240000988BFF36F8F7047E8020020EFF3058045
:10025000704700000648804706480047FEE7FEE773
:10026000FEE7FEE7FEE7FEE7FEE7FEE7FEE7FEE766
:10027000596D0008890100089FED1A1AF5EE000A71
:1002800040EE010ABDEEE00AF5EEC00A10EE100ADB
:10029000F1EE10FA38BF401E00EE100A1349F7EED7
:1002A000001AB8EEC00A30EEC00ADFED0F0A20EEE9
:1002B000200AFCEEC00A10EE900AC0F3080000EE1F
:1002C000900A01EB8000F8EE600A90ED011A70EEE2
:1002D000600A90ED000A71EEE01A21EE800A00EE4D
:1002E000810A704783F9223E0000004408C90008D3
:1002F000DFED190AB5EEC00A60EE200ABDEEE01A85
:1003000011EE100AF1EE10FA38BF401E00EE100A8E
:100310001349F7EE001AB8EEC00A30EEC00ADFED5E
:100320000F0A60EE200ABCEEE00A10EE100AC0F3DD
:10033000080000EE100A01EB8000B8EE400A90EDD4
:10034000011A70EEC00A90ED000A71EEE01A21EE7B
:10035000800A00EE810A704783F9223E00000044C3
:1003600008C9000801804280436070472DE9F34FBF
:1003700084B0049840680090486801900498B0F8F0
:1003800000E04588DFEDFE0A00200290B0EE600A32
:10039000AE4506D108884988884204BF7146864523
:1003A00004D06FF0020006B0BDE8F08F01985FEA5C
:1003B000010C18BFB7EE001A3DD000BFBEEB0C0118
:1003C00017D0B1F1004F80F01F82002911DD021F0C
:1003D00011F0010F1CBFC2ED010A121D4B1006D017
:1003E000C2ED010AC2ED020A08325B1EF8D100EB31
:1003F0008100BCF10102A0EC011A19D0B2F1004F4A
:1004000080F00882002A13DD031F12F0010F1CBFC9
:10041000C3ED010A1B1D511008D000BFC3ED010A36
:10042000C3ED020A491E03F10803F7D100EB820075
:10043000BCF1010CC2D14FF000080395002D14BF90
:10044000B0EE602A002000F0BF8100BF009908FBD9
:1004500005F001EB800B0199DBED002A01EB800038
:100460000346F0EE421AC64552D9AEEB0802ABEB9A
:10047000850112F0010F17D001EB850191ED000A03
:10048000B5EEC00AF1EE10FA07DDB4EEE10AF1EEC6
:1004900010FA09DDF0EE401A06E0B1EE400AF4EE83
:1004A000C01AF1EE10FAF5D3521031D001EB850CE1
:1004B0009CED000AB5EEC00AF1EE10FA05DDB4EECF
:1004C000E10AF1EE10FA09DD06E0B1EE400AF4EEC1
:1004D000C01AF1EE10FA01D2F0EE401A01EBC5019C
:1004E00091ED000AB5EEC00AF1EE10FA05DDB4EEAA
:1004F000E10AF1EE10FA09DD06E0B1EE400AF4EE91
:10050000C01AF1EE10FA01D2F0EE401A521ECDD10F
:10051000F5EEC01AF1EE10FA00F07381F5EEC02A84
:100520000126F1EE10FA0099D4BFB1EE620AB0EEE6
:10053000620AB4EE610AF1EE10FA1CBFAEEB0802DB
:10054000B2F1010C47D005FB08F201EB820292EDFB
:10055000001A00BFB0EE410A05FB06F4B5EEC00A72
:1005600000EB8404F1EE10FACCBFF0EE400AF1EE9D
:10057000400AF4EE610AF1EE10FA28D1B5EB080C4E
:1005800011D0BCF1004F7DD2BCF1000F0BDD00BFDC
:1005900092ED000AD1ED000ABCF1010CE2EC010A77
:1005A000A1EC010AF4D129000ED0B1F1004F6AD2BA
:1005B000002909DD94ED000AD0ED000A491EE4ECA3
:1005C000010AA0EC010AF5D1012002900BE0761C93
:1005D000BCF1010CBED10298012804D0F5EEC02A6E
:1005E000F1EE10FA7ED09BED000AB5EB08009A46BA
:1005F0005946064622D0B0F1004F74D200281DDDC6
:10060000091F10F0010F06D0F0EE400A80EEA01A8C
:1006100081ED011A091D401010D000BFD1ED010A73
:10062000401E80EE801A81ED011A91ED021AC1EE92
:10063000000AC1ED020A01F10801EFD1280026D01D
:10064000B0F1004F7ED2002821DDAAF1040110F0A4
:10065000010F06D0D1ED010A80EE801A81ED011A5A
:10066000091D401013D000BFD1ED010A401E80EEDD
:10067000801A81ED011AD1ED020A80EE801A81ED17
:10068000021A01E0CBE0D6E001F10801ECD1DDE98E
:1006900000124FF000095FEA0E0773D0C14504BF96
:1006A00001EB860102EB850274D091ED000ADC4675
:1006B0005046330035D01C46B6F1004F7ED2002C98
:1006C0002FDD0B1FABF1040C16F0010F0FD0F0EE75
:1006D000400ADCED011AB0EE601A00EEE11A83ED7B
:1006E000011A01E08DE0B1E01B1D0CF1040C741047
:1006F00015D000BFD3ED010A9CED011A40EE410A6E
:10070000C3ED010AD3ED020A9CED021A0CF1080CAC
:1007100040EE410AC3ED020A0833641EEAD101EB40
:1007200086012B0036D0B3F1004F72D2002B31DDA1
:10073000A2F1040CAAF1040013F0010F0CD0DCEDBF
:10074000010A00E08BE090ED011A001D40EE410A25
:10075000CCED010A0CF1040C5C1019D0DCED010A9F
:1007600090ED011A40EE410ACCED010ADCED020ADF
:1007700090ED021A083040EE410ACCED020A03E087
:10078000000000000DE005E0641E0CF1080CE5D14E
:1007900002EB830201EB88017F1E09F101097FF45E
:1007A0007DAF009808F10108001D00900398401EDD
:1007B00003907FF44BAE0299012900E058E004BF9A
:1007C00006B0BDE8F08F00BFB5EEC00AF1EE10FA3A
:1007D0007FF4E9AD04990EFB05F3002B4A684FF056
:1007E00000010BD902EB810C9CED000AB5EEC00AAA
:1007F000F1EE10FA02D1491C8B42F3D88B427FF400
:10080000D2AD6FF00400CEE5E0EC010A491EFBD149
:10081000EFE538E0E0EC010A521EFBD108E692ED6C
:10082000000AD1ED000ABCF1010CE2EC010AA1ECD6
:10083000010AF4D1B7E694ED000AD0ED000A491E92
:10084000E4EC010AA0EC010AF5D1BDE6D1ED000A05
:10085000401E80EE801AA1EC011AF7D1EEE6D3ED2E
:10086000000A401E80EE801AA3EC011AF7D10EE7B1
:10087000BCEC011AD1ED000A5B1E40EE410AE1EC2E
:10088000010AF5D14DE7B0EC011AD2ED000A5B1E6A
:1008900040EE410AE2EC010AF5D17BE72DE9F04F89
:1008A00082B0466853680193058847884B880020CA
:1008B00000900888874201BFB2F800C065455288A1
:1008C00093421EBF6FF0020002B0BDE8F08F9FEDB3
:1008D000412A4FEA970EC7F3400B00BFDDE9000243
:1008E00002EB800A4A6898464FF00009B0EE420ACF
:1008F000B4465FEA0E0025D092ED001ADCED001A36
:1009000002EB8302DCED010A01EE810A92ED001A8E
:1009100002EB8302401ED2ED001A02EB830200EECE
:10092000810A9CED021ADCED030A00040CF1100CA4
:10093000000C01EE210A92ED001A02EB830200EE98
:10094000810AD9D117F0030026D0ACF10404A2EB40
:10095000830210F0010F08D002EB8302D4ED010AEC
:1009600092ED001A241D00EE810A5FEA0B0013D0FD
:1009700002EB830CD4ED010A9CED001A02EBC302DA
:10098000401E00EE810AD4ED020A92ED001A04F135
:10099000080400EE810AEBD109F10100AAEC010A7A
:1009A0001FFA80F9486800EB8902A8F101001FFADC
:1009B00080F8B8F1000F99D1009806EB870618442B
:1009C00080B20090681E05042D0C87D102B0002073
:1009D000BDE8F08F0000000040EA01039B0703D050
:1009E00009E008C9121F08C0042AFAD203E011F86E
:1009F000013B00F8013B521EF9D27047D2B201E030
:100A000000F8012B491EFBD270470022F6E710B513
:100A100013460A4604461946FFF7F0FF204610BD6C
:100A20002DE9FE4F804681EA0300C00F0C4600907E
:100A300021F0004123F00045B8EB0200A94105D2A6
:100A40004046214690461C460B46024623F0004095
:100A5000104347D0270DC7F30A00C3F30A51029091
:100A6000401A019040286BDAC3F3130040F4801B56
:100A70000098924620B10023D2EB030A63EB0B0BE4
:100A800001985946C0F14002504600F0E5F906468B
:100A90000D4650465946019A00F0EDF910EB08005A
:100AA0006141002487EA115284EAE7731A4340D077
:100AB000009A62B3019A012A4FEA075215DC001B23
:100AC00061EB02014FF0004202EA0752CDE9004219
:100AD000001C41F5801132462B4600F024FA03B089
:100AE000BDE8F08F40462146F9E7001B61EB0201AB
:100AF000001C41F5801300185B412018A2F5001777
:100B000047EB030140EAD570B6196D4111E06D085D
:100B10004FEA360645EAC0754FEA0752001B61EB03
:100B20000201001C41F5801149084FEA300000190C
:100B3000514132462B4603B0BDE8F04F00F0E4B916
:100B40000098012240000023D0EB020263EBE07327
:100B5000009821464FEAE074B8EB000061EB040115
:100B6000E9E783F000435BE781F0004158E72DE9B6
:100B7000FE4F81EA030404F0004421F00041009498
:100B80004FF0000B23F0004350EA01045ED052EA1C
:100B900003045BD0C3F30A54C1F30A552C44A4F2F6
:100BA000F3340194A0FB0254C1F3130141F480110A
:100BB000C3F3130343F4801301FB024400FB034E11
:100BC000840A970A44EA815447EA8357A4FB0768DA
:100BD00002958D0A05FB07854FEA932C04FB0C5404
:100BE0002705029D4FEA065847EA1637B5EB080578
:100BF0006EEB070C870E920E47EA811742EA8312CA
:100C0000A7FB0201B6EB0B0164EB00042B0D43EADA
:100C10000C335E1844EB1C50DA465146E7FB0201E8
:100C2000C5F313044FEA0B3343EA14534FEA04327B
:100C3000019C43EA0603A4F10C040294009CCDE954
:100C400000B400F070F903B0BDE8F08F0020014659
:100C5000F9E72DE9F04D81EA030404F0004B21F09F
:100C6000004514464FF0000A23F0004150EA050207
:100C700020D054EA01021DD0C5F30A570246C5F33D
:100C80001303C1F31300C1F30A5640F4801543F473
:100C90008013A7EB0608101BD64608F2FD3873EB4D
:100CA000050002D308F1010801E092185B41B8F198
:100CB000000F03DA00200146BDE8F08D00204FF45C
:100CC0008011064684460EE0171B73EB050705D31B
:100CD000121B63EB050306434CEA010C49084FEA7B
:100CE000300092185B4150EA0107EDD152EA03004F
:100CF00012D082EA040083EA0501084305D0101BE4
:100D0000AB4106D20122002306E000224FF000434F
:100D100002E06FF0010253101AEB06004CEB085191
:100D200010EB0A0041EB0B01BDE8F04D00F0ECB810
:100D30000EB5C10F80EAE0700844CA07002140F2F6
:100D400033438DE80E000A460B4600F0ECF803B082
:100D500000BD0EB540F2334102910021CDE90011F2
:100D60000A460B4600F0DFF803B000BD00F0004279
:100D700030F000400AD0C10D01F56071C0F31600DB
:100D800042EA0151C2084007114370470020014662
:100D90007047000030B5041E71F1000404DB4FF011
:100DA0000044404264EB0101141E73F1000405DBB2
:100DB0001C464FF00043524263EB04038B4208BFD2
:100DC000824230BD30B5041E71F1000404DB4FF0E7
:100DD0000044404264EB0101141E73F1000405DB82
:100DE0001C464FF00043524263EB0403994208BF94
:100DF000904230BD01F0004330B421F0004150EA90
:100E0000010206D00A0DA2F56072C1F31301002A97
:100E100002DC30BC00207047440F44EAC104C1002A
:100E2000E01830BC00EBC25000F037B830B50B46CC
:100E3000014600202022012409E021FA02F59D420A
:100E400005D303FA02F5491B04FA02F52844151EDE
:100E5000A2F10102F1DC30BD202A04DB203A00FAC5
:100E600002F1002070479140C2F1200320FA03F301
:100E7000194390407047202A06DBCB17203A41FAED
:100E800002F043EAE07306E041FA02F3D040C2F117
:100E9000200291400843194670470029A8BF7047B7
:100EA000401C490008BF20F00100704710B4B0FAA0
:100EB00080FC00FA0CF050EA010404BF10BC70473B
:100EC00049B1CCF1200421FA04F411FA0CF118BF55
:100ED000012121430843A3EB0C01CB1D4FEA006124
:100EE0004FEA102042BF002010BC704700EBC350F7
:100EF00010440029A4BF10BC7047401C490008BF23
:100F000020F0010010BC704710B5141E73F10004EE
:100F100008DA401C41F1000192185B411A4301D1EB
:100F200020F0010010BD2DE9F04D92469B4611B115
:100F3000B1FA81F202E0B0FA80F220329046FFF777
:100F40008BFF04460F4640EA0A0041EA0B01534674
:100F50005A46084313D0114653EA010019D0C8F18C
:100F60004002504600F090F805460E46504659465D
:100F70004246FFF771FF084305D0012004E02046F8
:100F80003946BDE8F08D0020054346EAE0762C4363
:100F900037430A986305E40AA0EB08000022FD0A23
:100FA00044EA47540A3002D500200146E9E701052A
:100FB00010196941DDE9084500196941BDE8F04DA6
:100FC000A2E72DE9F04D00231A461B1A8A4103DBE4
:100FD00000200146BDE8F08DC1F30A52C1F31301B0
:100FE00041F480154FF0000BD10702D100186D417C
:100FF000521E0027044640F2FF11384601EB620AF8
:101000003E468046024600204FF4801100F03CF836
:10101000C2197141BB1846EB0100B4EB030C75EB30
:10102000000C04D3E41A65EB000517460E4624199C
:1010300008F101006D4180463428E3DDF91946EBE3
:101040000600091BA84103D24FF0FF32134601E00E
:10105000002213461BEB070046EB0A51BDE8F04D9A
:10106000FFF752BF064C074D06E0E06840F0010371
:1010700094E8070098471034AC42F6D3FFF788F89D
:1010800020D3000840D30008202A04DB203A21FAAC
:1010900002F00021704721FA02F3D040C2F1200291
:1010A000914008431946704770B5C1F30A5201F0E8
:1010B00000450024C1F3130140F2FF3341F48011D5
:1010C0009A4201DA002070BD40F233439A42A2F204
:1010D000334203DC5242FFF7D7FF00E090402C433D
:1010E000F1D0404270BD70B58C1810F8015B15F05E
:1010F000070301D110F8013B2A1106D110F8012B8A
:1011000003E010F8016B01F8016B5B1EF9D12B07AE
:1011100005D40023521E0DD401F8013BFAE710F864
:10112000013BCB1A921C03E013F8015B01F8015B51
:10113000521EF9D5A142D8D3002070BD30B52DED97
:101140000C8BD9B09FEDA90AF0EE408A9FEDA70A5B
:10115000B0EE409A9FEDA50AF0EE409A002462E0BE
:10116000A34A911E881E03F0ACFFA148001FB0F9EE
:10117000000000EE100AB8EEC00ADFED9E0A80EE15
:10118000201AB0EE000A21EE000ADFED9B0A20EEE5
:10119000200A8DED250A9648001FB0F9020000EEE6
:1011A000100AF8EEC00A9FED931A80EE810AF0EE65
:1011B000000A20EE200ADFED900A20EE200A8DEDD5
:1011C000240A8B48001FB0F9040000EE100AF8EE64
:1011D000C00A9FED881A80EE810AF0EE000A20EE28
:1011E000200ADFED850A20EE200A8DED230A23AACE
:1011F00024A925A807F070FE9DED250A38EE800A87
:10120000F0EE408A9DED240A39EE000AB0EE409AD5
:101210009DED230A39EE800AF0EE409A032008F093
:1012200009FE601CC4B2642C9ADB9FED740AC8EE00
:10123000800ACDED250A9FED710AC9EE000ACDEDB9
:10124000240A9FED6E0AC9EE800ACDED230ADDED7A
:10125000250A60EEA00A9DED241ADDED241A41EE68
:10126000210A9DED231ADDED231A41EE210AB0EE8D
:10127000600A08F0EDFDB0EE408A9DED250AC0EE53
:10128000080A10EE905A2846FFF770FD41EC1B0B40
:10129000B0EE4B0AF0EE6B0A06F0CEFAB0EE40AAC2
:1012A000F0EE60AA9FED560B53EC102B51EC1A0B8D
:1012B000FFF75DFC559154909DED230AB1EE400A75
:1012C00010EE100AFFF752FD41EC1C0B9DED240AB5
:1012D000B1EE400A10EE100AFFF748FD41EC1D0B7D
:1012E000B0EE4C1AF0EE6C1AB0EE4D0AF0EE6D0A4C
:1012F00006F0BEFDB0EE40BAF0EE60BA9FED400BD6
:1013000053EC102B51EC1B0BFFF731FC41EC1A0B8B
:101310009FED3D0B53EC102BFFF723FC53915290A4
:101320009FED3B0B8DED560B9DED562B9DED541B0C
:101330009DED520B10A801F053F8482210A940A8C7
:10134000FFF74AFB402242A96846FFF745FB10A879
:10135000419B409A04F0AEFF482210A92EA8FFF747
:101360003BFB382232A96846FFF736FB2EA80FC890
:1013700004F086F88DED260B8DED281B8DED2A2BC4
:101380008DED2C3B9DED261BB0EE410AF0EE610A7F
:1013900051EC100BFFF72EFD1F4908609DED281B37
:1013A000B0EE410AF0EE610A51EC100BFFF722FD9E
:1013B0001A4908609DED2A1BB0EE410AF0EE610A61
:1013C00051EC100BFFF716FD154908609DED2C1B25
:1013D000B0EE410AF0EE610A51EC100BFFF70AFD86
:1013E0001049086059B0BDEC0C8B30BD0000000006
:1013F0006C1B0020000000470AE81C410000C842A6
:1014000000000000DCA54C400000000000806640A9
:1014100000000000000000005C02002060020020CC
:1014200064020020680200200EB52A4A911E881E20
:1014300003F047FE2748001FB0F9000000EE100A35
:10144000B8EEC00ADFED240A80EE201AB0EE000AE2
:1014500021EE000ADFED210A20EE200A8DED020ABE
:101460001C48001FB0F9020000EE100AB8EEC00AD6
:101470009FED191AC0EE010AB0EE000A20EE800AB4
:10148000DFED160A20EE200A8DED010A1148001F3B
:10149000B0F9040000EE100AB8EEC00A9FED0E1A73
:1014A000C0EE010AB0EE000A20EE800ADFED0B0A62
:1014B00020EE200A8DED000A6A4601A902A807F075
:1014C0000BFD9DED001ADDED010A9DED020A00F015
:1014D000F5FE0EBD6C1B0020000000470AE81C4111
:1014E00000B5B5B0FE4890ED000A20EE000A8DED83
:1014F0001F0A90ED000AFB48D0ED000A20EE200AFA
:101500008DED1E0AF64890ED000AF748D0ED000A6E
:1015100020EE200A8DED1D0AF14890ED000AF348F7
:10152000D0ED000A20EE200A8DED1C0AED4890ED6A
:10153000000A20EE000A8DED1B0A90ED000AEA4831
:10154000D0ED000A20EE200A8DED1A0AE54890ED54
:10155000000AE648D0ED000A20EE200A8DED190AB7
:10156000E14890ED000A20EE000A8DED180A90ED9A
:10157000000ADE48D0ED000A20EE200A8DED170AA1
:1015800090ED000A20EE000A8DED160AD84890ED85
:10159000040A8DED150A90ED050A8DED140A90ED03
:1015A000060A8DED130A90ED000A8DED120A90EDFA
:1015B000010A8DED110A90ED020A8DED100A90EDF1
:1015C000070A8DED0F0A90ED080A8DED0E0A90EDD9
:1015D000090A8DED0D0A03F009F9C64880ED000BEC
:1015E000C54890ED000B53EC102BC24890ED000B5A
:1015F00051EC100BFFF7B5FACDE90A019DED0A0B8E
:1016000051EC100BFFF7F6FB00EE100A9FEDBB1A32
:10161000C0EE010ACDED0C0A0C98FFF7A7FBCDE94F
:101620002401B44890ED000BB34880ED000B9DED14
:10163000120A20EE000ADDED110A00EEA00ADDED2F
:10164000100A00EEA00A8DED0C0A9DED0C0A08F0C0
:101650004DFA8DED340A9DED120ADDED340A20EECF
:10166000200A8DED120A9DED110ADDED340A20EEFF
:10167000200A8DED110A9DED100ADDED340A20EEF1
:10168000200A8DED100A9DED0F0A20EE000ADDED17
:101690000E0A00EEA00ADDED0D0A00EEA00A8DEDA7
:1016A0000C0A9DED0C0A08F021FA8DED340A9DED2F
:1016B0000F0ADDED340A20EE200A8DED0F0A9DEDB4
:1016C0000E0ADDED340A20EE200A8DED0E0A9DEDA6
:1016D0000D0ADDED340A20EE200A8DED0D0A9DED98
:1016E000150ADFED870A20EE200A8DED150A9DED23
:1016F000140ADFED830A20EE200A8DED140A9DED19
:10170000130ADFED7F0A20EE200A8DED130A9DED0E
:10171000150ADFED7C0A20EE200A8DED150A9DEDFD
:10172000140ADFED780A20EE200A8DED140A9DEDF3
:10173000130ADFED740A20EE200A8DED130A1598C6
:10174000FFF714FBCDE908019DED080B06F0ECFC5A
:101750008DED0A0B9FED6C0B53EC102B9DED0A0BDE
:1017600051EC100BFFF716FB03D29FED690A8DEDCC
:10177000150A1498FFF7FAFACDE908019DED080B58
:1017800006F0D2FC8DED0A0B9FED5F0B53EC102B96
:101790009DED0A0B51EC100BFFF7FCFA03D29FED05
:1017A0005C0A8DED140A1398FFF7E0FACDE9080101
:1017B0009DED080B06F0B8FC8DED0A0B9FED520B6A
:1017C00053EC102B9DED0A0B51EC100BFFF7E2FAD6
:1017D00003D29FED4F0A8DED130A9DED0F0AF0EE37
:1017E000000A60EE200A9DED180AB6EE001A31EEEE
:1017F000401A9DED160A31EE400A60EE800A9DED1A
:101800000E0AB0EE001A60EE011A9DED1A0A9DED67
:101810001C1A30EE411AB0EE600A01EE810ADDEDCD
:101820000D0AB0EE001A60EE811ADDED190A9DED89
:101830001D1A70EE810A01EEA00A8DED330A9DEDAE
:101840000F0AF0EE000A20EE201A9DED1A0ADDEDD7
:101850001C0A30EE200A21EE000ADDED0E0AB0EE81
:10186000001A20EE811ADDED1B0AF6EE001A71EE69
:10187000E01ADDED160A71EEE00A01EE200ADDED58
:101880000D0AB0EE001A60EE811ADDED170A9DED2B
:101890001E1A70EEC10A01EEA00A8DED320A9DED0E
:1018A0000F0AF0EE000A20EE201A9DED190ADDED78
:1018B0001D0A30EE600A21EE000ADDED0E0AB0EEE0
:1018C000001A60EE811ADDED170A9DED1E1A70EE0A
:1018D000810A01EEA00ADDED0D0AB0EE001A19E052
:1018E0005C020020600200206402002068020020E8
:1018F000401B0020B0020020A80200200000FA4493
:10190000F8C1F93C35FA8E3CFA7E6ABC7493683FA4
:101910000000000020EE811ADDED1B0AF6EE001A31
:1019200071EEE01ADDED180A71EEE00A01EE200A10
:101930008DED310A9DED330A60EE000A9DED320A0D
:1019400040EE000ACDED070A0798FFF70FFACDE940
:1019500008019DED080B06F057FC8DED0A0B9DED7F
:101960000A0B51EC100BFFF745FA30909DED310A50
:101970008DED2F0A9DED190ADDED1D0A30EE600A8E
:10198000F0EE000A20EE200A8DED2E0A9DED1E0AD3
:10199000DDED170A30EE200AF0EE000A20EE200AF4
:1019A0008DED2D0A9DED1F0ADDED1B0A70EE600A1C
:1019B0009DED180A70EEC00A9DED160A30EE800A01
:1019C0008DED2C0A9DED300AF0EE000A60EE200A43
:1019D0009DED180AB6EE001A31EE401A9DED160A7A
:1019E00031EE400A60EE800A9DED2F0AB0EE001A3B
:1019F00060EE011A9DED190A9DED1D1A30EE411A97
:101A0000B0EE600A01EE810A8DED2B0A9DED300AE1
:101A1000F0EE000A20EE201A9DED1A0ADDED1C0AF8
:101A200030EE600A61EE000A9DED2F0AB0EE001A5A
:101A300060EE011A9DED1E0A9DED171A30EE011A97
:101A4000B0EE600A01EE810A8DED2A0A9DED300AA2
:101A5000F0EE000A20EE201A9DED1D0ADDED190AB8
:101A600030EE200A61EE000A9DED2F0AB0EE001A5A
:101A700020EE011A9DED1B0AF6EE001A71EEC01A57
:101A80009DED180A71EEC01AB0EE600A01EE210A4F
:101A90008DED290ADDED110A9DED2C0A60EE800A1C
:101AA0009DED101A9DED2D0A41EE400A9DED0E1A96
:101AB0009DED290A21EE001ADDED0D1A9DED2A0A91
:101AC00001EEC01A30EE810A8DED280ADDED100A14
:101AD0009DED2E0A60EE800A9DED121A9DED2C0AF6
:101AE00041EE400A9DED0D1A9DED2B0A21EE001AE4
:101AF000DDED0F1A9DED290A01EEC01A30EE810AC4
:101B00008DED270ADDED120A9DED2D0A60EE800AAB
:101B10009DED111A9DED2E0A41EE400A9DED0F1A22
:101B20009DED2A0A61EE001A9DED0E1A9DED2B0A1D
:101B300041EE401A30EEA10A8DED260A9DED150A00
:101B400020EE000ADDED140A00EEA00ADDED130A16
:101B500000EEA00A8DED070A0798FFF707F9CDE917
:101B600008019DED080B06F04FFB8DED0A0B9DED76
:101B70000A0B51EC100BFFF73DF934909DED340A40
:101B8000DFEDFE0AB4EEE00AF1EE10FA7DD29DED33
:101B9000280A5FEDA10A20EE200A8DED030A0398C2
:101BA000FFF7E4F8CDE904019DED240B53EC102B75
:101BB0009DED040B51EC100BFEF7D9FFCDE90801A8
:101BC000EF480068FFF7D2F8CDE906019DED080B5C
:101BD00053EC102B9DED060B51EC100BFEF720FF84
:101BE000CDE90A019DED0A0B51EC100BFFF702F94C
:101BF000E34908609DED270A5FEDBB0A20EE200A4D
:101C00008DED030A0398FFF7B1F8CDE904019DEDCE
:101C1000240B53EC102B9DED040B51EC100BFEF735
:101C2000A6FFCDE90801D7480068FFF79FF8CDE986
:101C300006019DED080B53EC102B9DED060B51ECAE
:101C4000100BFEF7EDFECDE90A019DED0A0B51ECFC
:101C5000100BFFF7CFF8CB4908609DED260A5FED2A
:101C6000D40A20EE200A8DED030A0398FFF77EF8D0
:101C7000CDE904019DED240B53EC102B9DED040BDD
:101C800051EC100BFEF773FF00E049E0CDE90801CD
:101C9000BD480068FFF76AF8CDE906019DED080B25
:101CA00053EC102B9DED060B51EC100BFEF7B8FE1C
:101CB000CDE90A019DED0A0B51EC100BFFF79AF8E4
:101CC000B14908609DED150ADDED280AB0EE001A55
:101CD00001EE200AAA48D0ED000A30EE200A8DED70
:101CE000150A9DED140ADDED270AB0EE001A01EE8B
:101CF000200AA448D0ED000A30EE200A8DED140A27
:101D00009DED130ADDED260AB0EE001A01EE200A61
:101D10000846D0ED000A30EE200A8DED130A1DE0D2
:101D20009DED150ADDED280AB7EE001A01EE200A36
:101D30008DED150A9DED140ADDED270AB7EE001AA8
:101D400001EE200A8DED140A9DED130ADDED260A41
:101D5000B7EE001A01EE200A8DED130A8B4890EDC4
:101D6000000AF1EE400A9DED150A20EE800A88482F
:101D700090ED001ADDED140A01EE600A854890ED41
:101D8000001ADDED130A01EE600A8DED030A0398D7
:101D9000FEF7ECFFCDE904019DED240B53EC102B75
:101DA0009DED040B51EC100BFEF7E1FECDE90801AF
:101DB00079480068FEF7DAFFCDE906019DED080BD2
:101DC00053EC102B9DED060B51EC100BFEF728FE8B
:101DD000CDE90A019DED0A0B51EC100BFFF70AF853
:101DE00023906D48D0ED000A9DED150A20EE800A83
:101DF000674890ED001ADDED130A01EE200A6548F0
:101E000090ED001ADDED140A01EE600A8DED030A73
:101E10000398FEF7ABFFCDE904019DED240B53ECD5
:101E2000102B9DED040B51EC100BFEF7A0FECDE93D
:101E3000080156480068FEF799FFCDE906019DEDBF
:101E4000080B53EC102B9DED060B51EC100BFEF71D
:101E5000E7FDCDE90A019DED0A0B51EC100BFEF7F1
:101E6000C9FF22904C48D0ED000A9DED140A20EEE7
:101E7000800A464890ED001ADDED130A01EE600A73
:101E8000444890ED001ADDED150A01EE200A8DEDB3
:101E9000030A0398FEF76AFFCDE904019DED240BC8
:101EA00053EC102B9DED040B51EC100BFEF75FFE75
:101EB000CDE9080136480068FEF758FFCDE9060174
:101EC0009DED080B53EC102B9DED060B51EC100B08
:101ED000FEF7A6FDCDE90A019DED0A0B51EC100BB2
:101EE000FEF788FF21902C48D0ED000A9DED130AE3
:101EF00020EE800A254890ED001ADDED140A01EE6F
:101F0000200A234890ED001ADDED150A01EE600A63
:101F10008DED030A0398FEF729FFCDE904019DED3D
:101F2000240B53EC102B9DED040B51EC100BFEF722
:101F30001EFECDE9080117480068FEF717FFCDE93E
:101F400006019DED080B53EC102B9DED060B51EC9B
:101F5000100BFEF765FDCDE90A019DED0A0B51EC72
:101F6000100BFEF747FF20909DED230A60EE000A5C
:101F70009DED220A40EE000A10E000009CC4A03E45
:101F8000500200205402002058020020600200206D
:101F900064020020680200205C0200209DED210AFE
:101FA00040EE000A9DED200A40EE000ACDED0C0A3D
:101FB0009DED0C0A07F09AFD8DED340A9DED230A84
:101FC000DDED340A20EE200AB04880ED000A9DEDD8
:101FD000220ADDED340A20EE200AAD4880ED000A29
:101FE0009DED210ADDED340A20EE200AA94880ED9E
:101FF000000A9DED200ADDED340A20EE200AA648F5
:1020000080ED000AA54890ED000AA54880ED000A81
:10201000A04890ED000AF8EE000A20EE200AD0ED6C
:10202000000A20EE200A9C48D0ED000AB0EE001A0B
:1020300060EE810A90ED001A00EEC10AF7EE000A88
:1020400030EE200A8DED010A0198FEF78FFECDE9F2
:1020500004018F4890ED000AF0EE000A20EE200AFD
:102060008C48D0ED000A20EE200A8848D0ED000A06
:10207000B0EE001A60EE810A874890ED001A00EE7B
:10208000810A8DED010A0198FEF770FECDE902018B
:102090009DED041B9DED020B05F0EAFE8DED060B98
:1020A0009DED060B51EC100B81F000419FED7D0B77
:1020B00053EC102BCDE908019DED080B51EC100BF2
:1020C000FEF755FDCDE90A019DED0A0B51EC100B11
:1020D000FEF790FE714908606D4890ED000AF8EE39
:1020E000000A20EE200A6C48D0ED000A20EE200AFB
:1020F0006648D0ED000AB0EE001A60EE810A65482D
:1021000090ED001A00EE810A8DED030A0398FEF7A8
:102110002DFECDE904019DED040B05F08DFB8DED49
:10212000060B9DED060B51EC100B81F000419FED6D
:102130005D0B53EC102BCDE908019DED080B51EC24
:10214000100BFEF714FDCDE90A019DED0A0B51ECD1
:10215000100BFEF74FFE554988604D4890ED000A80
:10216000F8EE000A20EE200AD0ED000A20EE200A48
:102170004848D0ED000AB0EE001A60EE810A90EDFA
:10218000001A00EEC10AF7EE000A30EE200A8DEDCB
:10219000030A0398FEF7EAFDCDE906013D4890EDFC
:1021A000000AF0EE000A20EE200A3B48D0ED000ABB
:1021B00020EE200A3548D0ED000AB0EE001A60EE9D
:1021C000810A334890ED001A00EE810A8DED030A72
:1021D0000398FEF7CBFDCDE904019DED061B9DEDB7
:1021E000040B05F045FE8DED080B9FED2E0B53EC17
:1021F000102B9DED080B51EC100BFEF7B8FCCDE950
:102200000A019DED0A0B51EC100BFEF7F3FD274977
:10221000C860224890ED000A2148D0ED000A30EE57
:10222000600ADFED230AB4EEE00AF1EE10FA05DBF6
:1022300020480068401E1F49086013E0174890EDD1
:10224000000A1748D0ED000A30EE600ADFED1A0AE6
:10225000B4EEE00AF1EE10FA04D816480068401C0B
:1022600014490860134800684FF4B471484300EE05
:10227000100AB8EEC00A0948D0ED000A30EE200A74
:102280000A4880ED040A35B000BD00005C02002061
:10229000600200206402002068020020700200201A
:1022A0006C02002000000000DCA54C40C81B002090
:1022B0000000A543780200200000A5C3034880ED7C
:1022C000000AC0ED010A80ED021A7047401B002091
:1022D00010B52DED048B9FED3C0AB0EE408A9FEDCA
:1022E0003A0AF0EE408A9FED380AB0EE409A002498
:1022F00051E0364A911E881E02F0E3FE3348001F6B
:10230000B0F9000000EE100AB8EEC00ADFED300AA6
:1023100080EE201AB0EE000A61EE000A9FED2D1A41
:10232000B0EE480A00EE810AB0EE408A2748001F4E
:10233000B0F9020000EE100AB8EEC00A9FED241AB0
:10234000C0EE010AB0EE000A60EE800A9FED211A8D
:10235000B0EE680A00EE810AF0EE408A1B48001FCA
:10236000B0F9040000EE100AB8EEC00A9FED181A8A
:10237000C0EE010AB0EE000A60EE800A9FED151A69
:10238000B0EE490A00EE810AB0EE409A032007F051
:1023900051FD601CC4B2C82CABDB9FED0F0AC8EE28
:1023A000000A0E48C0ED000A9FED0B0AC8EE800A35
:1023B000C0ED010A9FED080AC9EE000AC0ED020A4D
:1023C000BDEC048B10BD0000000000006C1B002061
:1023D000000000470AE81C410000C842901B002092
:1023E00031B52DED060B2DED108B94B004469DED0F
:1023F000281BB0EE410AF0EE610A9FEDED1B53EC95
:10240000112B51EC100BFEF7B2FB41EC180B9DEDBC
:10241000261BB0EE410AF0EE610A9FEDE51B53EC7E
:10242000112B51EC100BFEF7A2FBCDE900019DED45
:10243000241BB0EE410AF0EE610A9FEDDD1B53EC68
:10244000112B51EC100BFEF792FB41EC190BB0EE87
:10245000480AF0EE680A05F003FEB0EE40AAF0EE7E
:1024600060AA9DED000B05F0FBFDB0EE40BAF0EE6A
:1024700060BA53EC1A2B51EC1B0BFEF778FBCDE93D
:102480000201B0EE480AF0EE680A05F059FEB0EE1F
:1024900040CAF0EE60CAB0EE490AF0EE690A05F0F3
:1024A000DFFDB0EE40DAF0EE60DA53EC1C2B51ECBD
:1024B0001D0BFEF75CFB41EC1A0BB0EE480AF0EE88
:1024C000680A05F0CDFDB0EE40CAF0EE60CA9DEDA1
:1024D000000B05F035FEB0EE40EAF0EE60EAB0EE3B
:1024E000490AF0EE690A05F02BFEB0EE40FAF0EE74
:1024F00060FA53EC1E2B51EC1F0BFEF738FB41EC3E
:102500001D0B53EC1C2BFEF732FB41EC1B0B53EC69
:102510001A2BFEF726FBCDE90401B0EE480AF0EED7
:10252000680A05F00DFEB0EE40CAF0EE60CAB0EEEB
:10253000490AF0EE690A05F003FEB0EE40DAF0EE6B
:1025400060DA53EC1C2B51EC1D0BFEF710FB41EC39
:102550001A0BB0EE480AF0EE680A05F081FDB0EE05
:1025600040CAF0EE60CA9DED000B05F0E9FDB0EE4B
:1025700040EAF0EE60EAB0EE490AF0EE690A05F0D2
:102580006FFDB0EE40FAF0EE60FA53EC1E2B51EC0A
:102590001F0BFEF7ECFA41EC1D0B53EC1C2BFEF766
:1025A000E6FA41EC1B0B53EC1A2BFEF739FACDE996
:1025B0000601B0EE480AF0EE680A05F0C1FDB0EE83
:1025C00040AAF0EE60AA9DED000B05F049FDB0EECB
:1025D00040BAF0EE60BA53EC1A2B51EC1B0BFEF72D
:1025E000C6FACDE90801B0EE480AF0EE680A05F037
:1025F00037FDB0EE40CAF0EE60CAB0EE490AF0EE28
:10260000690A05F02DFDB0EE40DAF0EE60DA53EC29
:102610001C2B51EC1D0BFEF7AAFA41EC1A0BB0EE85
:10262000480AF0EE680A05F08BFDB0EE40CAF0EE05
:1026300060CA9DED000B05F083FDB0EE40EAF0EEC0
:1026400060EAB0EE490AF0EE690A05F079FDB0EEF5
:1026500040FAF0EE60FA53EC1E2B51EC1F0BFEF724
:1026600086FA41EC1D0B53EC1C2BFEF780FA41EC73
:102670001B0B53EC1A2BFEF7D3F9CDE90A01B0EE90
:10268000480AF0EE680A05F0EBFCB0EE40CAF0EE46
:1026900060CAB0EE490AF0EE690A05F051FDB0EEED
:1026A00040DAF0EE60DA53EC1C2B51EC1D0BFEF718
:1026B0005EFA41EC1A0BB0EE480AF0EE680A05F03B
:1026C0003FFDB0EE40CAF0EE60CA9DED000B05F094
:1026D00037FDB0EE40EAF0EE60EAB0EE490AF0EE07
:1026E000690A05F0BDFCB0EE40FAF0EE60FA53EC7A
:1026F0001E2B51EC1F0BFEF73AFA41EC1D0B53EC6D
:102700001C2BFEF734FA41EC1B0B53EC1A2BFEF793
:1027100028FACDE90C019DED000B05F011FDB0EE9E
:1027200040AAF0EE60AA51EC1A0B81F00041CDE90D
:102730000E019DED000B05F093FCB0EE40AAF0EE0B
:1027400060AAB0EE490AF0EE690A05F0F9FCB0EEB5
:1027500040BAF0EE60BA53EC1A2B51EC1B0BFEF7AB
:1027600006FACDE910019DED000B05F079FCB0EE05
:1027700040AAF0EE60AAB0EE490AF0EE690A05F050
:102780006FFCB0EE40BAF0EE60BA53EC1A2B51EC8D
:102790001B0BFEF7ECF9CDE91201482202A92046F5
:1027A000FEF71AF914B0BDEC108B07B030BD000075
:1027B000000000A046DF913F00BFFEE710B50221F8
:1027C000064800F099FB38B1054A0021034800F0A3
:1027D000EFFC034800F006F810BD00000064004064
:1027E0002C05002038B504462068B0F5017F14D0D0
:1027F00007DCA0F2012068B101280CD002287DD1AD
:102800000AE0A0F20520002879D0A0F20B100028E1
:10281000F5D1CCE000BF00BF00BF2078401E754955
:1028200008700846007800EB8000734931F82000FA
:102830007049097801EB81016F4A02EB8101B1F91E
:102840000810401AB0F5805F10DD6A48007800EB90
:102850008000114601EB8000C068401E6549097880
:1028600001EB810102EB8101C86023E0614800783F
:1028700000EB8000604931F820005E49097801EBE7
:1028800081015D4A02EB8101B1F90810401A10F58F
:10289000805F0FDA5748007800EB8000114601EBAB
:1028A0008000C068401C5349097801EB810102EBAC
:1028B0008101C8604F48007800EB80004E4931F834
:1028C000200000B24B49097801EB81014A4A02EB32
:1028D00081010881207BE17A40EA0120454909789D
:1028E00001EB810122F82100A17B607B41EA0020FD
:1028F00000B24049097801EB810101E077E034E062
:1029000002EB81014880217CE07B41EA002000B29B
:102910003849097801EB810102EB81018880607CF4
:102920003449097801EB810102EB8101887131485A
:10293000007800EB8000114631F820102D48007817
:1029400000EB800002EB8000C06801EB40302949B9
:10295000097801EB810102EB8101086125490978C1
:10296000091DC8B201F002FA42E0204600F02CFD39
:102970002248008800B221490881207BE17A40EAA0
:1029800001201E490880A17B607B41EA002000B243
:102990001A494880217CE07B41EA002000B21749B7
:1029A0008880607C8871032001F0E0F920E0207BC2
:1029B000E17A40EA012000B211494880A17B607BA6
:1029C00041EA002000B20E490880E07B8DF800004B
:1029D000207C8DF80100607C8DF80200A07C8DF8D1
:1029E00003009DED000A084680ED010A00E000BFEB
:1029F00000BF38BD3C000020B8040020A404002023
:102A0000300000202DE9F0418AB004460D461646FC
:102A10001F46DDF840800121084603F0F9FD012141
:102A2000480603F005FE0121480603F011FE0021CF
:102A30004FF0007003F00CFE4FF4C05008900220DD
:102A40008DF8240000208DF8260003208DF8250045
:102A500001208DF8270008A9314801F007FE09225E
:102A60000B212F4801F04AFE09220C212C4801F0CD
:102A700045FE00208DF81A0001208DF81B00002073
:102A80008DF81C0001208DF81D0000208DF81E001F
:102A90008DF81F008DF816808DF817408DF818609E
:102AA0008DF81950ADF8147005A91E4800F0BDFA54
:102AB00000208DF80E008DF80F0001208DF8100019
:102AC0000020ADF80400ADF80600ADF80800ADF840
:102AD0000A00ADF80C0001208DF8110001A800F0EB
:102AE00087F9012202210F4800F096FA00224FF4E4
:102AF00000410C4800F090FA14208DF800000420EA
:102B00008DF8010000208DF8020001208DF80300EF
:102B1000684603F003FC00200AB0BDE8F081000025
:102B2000000002400064004010B51021064800F08B
:102B3000E3F938B1054A0121034800F039FB0348A5
:102B400000F006F810BD00000068004040050020BD
:102B500008B50168A1F2115111B101294AD111E062
:102B6000C17A8DF80010017B8DF80110417B8DF842
:102B70000210817B8DF803109DED000A1F4981ED45
:102B8000000A38E0817CA1B1012181F3138800BFE4
:102B900000BFBFF34F8F1A49096801F4E061194A79
:102BA0001143091D164A1160BFF34F8F00BF00BFCC
:102BB000FEE7017BC27A41EA022109B2124A118082
:102BC000827B417B42EA012109B20F4A51800021F8
:102BD0009180D180027CC17B42EA012109B20A4A7C
:102BE0001181417C09119172417C01F00F0206496B
:102BF000CA7200E000BF00BF08BD0000380000201E
:102C00000CED00E00000FA05080500202DE9F04178
:102C10008AB004460D4616461F46DDF84080012165
:102C2000022003F0F5FC0121880603F001FD0121DB
:102C3000880603F00DFD00214FF0806003F008FDD1
:102C40006020089002208DF8240000208DF82600D6
:102C500003208DF8250001208DF8270008A93248AF
:102C600001F004FD092205212F4801F047FD09224A
:102C700006212D4801F042FD00208DF81A000120A8
:102C80008DF81B0000208DF81C0001208DF81D0020
:102C900000208DF81E008DF81F008DF816808DF82D
:102CA00017408DF818608DF81950ADF8147005A90B
:102CB0001E4800F0BAF90E208DF80E0000208DF8A5
:102CC0000F0001208DF810000020ADF80400ADF8D1
:102CD0000600ADF80800ADF80A000120ADF80C00C0
:102CE0008DF8110001A800F083F8012210210F488F
:102CF00000F092F900224FF400410D4800F08CF9E9
:102D000041208DF8000004208DF8010000208DF88E
:102D1000020001208DF80300684603F0FFFA00204E
:102D20000AB0BDE8F08100000004024000680040E5
:102D300000640040F0B585B004460D4616461F46B7
:102D40004FF40070009000208DF808008DF8090005
:102D500008208DF80A00200A8DF80B00E1B28DF8EA
:102D60000C10290A8DF80D10E9B28DF80E10310AF9
:102D70008DF80F10F1B28DF81010390A8DF811107E
:102D8000F9B28DF812106946024800F089FA05B0D0
:102D9000F0BD00000064004030B585B004460D462B
:102DA00040F2FF10009000208DF808008DF8090017
:102DB00008208DF80A00200A8DF80B00E1B28DF88A
:102DC0000C10290A8DF80D10E9B28DF80E100021B3
:102DD0008DF80F108DF810108DF811108DF812105D
:102DE0006946024800F05CFA05B030BD006400405E
:102DF00010B50021837A012202FA03F13D4A1268DC
:102E000042F001023B4B1A603A4A1C3212688A4374
:102E1000384B1C331A60027BCAB9364A0C3212682E
:102E20008A43344B0C331A604288C38842EA034316
:102E3000304A4032847A42F834300288838842EA49
:102E400003432C4A4032847A02EBC4025360027B73
:102E5000012A19D1274A0C3212680A43254B0C3338
:102E60001A604288038842EA0343224A4032847A45
:102E700042F83430C288838842EA03431D4A403214
:102E8000847A02EBC4025360C27A3AB9194A121D1D
:102E900012688A43174B1B1D1A6006E0154A121D63
:102EA00012680A43134B1B1D1A60028932B9114A7A
:102EB000143212688A430F4B14331A600289012AB4
:102EC00006D10C4A143212680A430A4B14331A60B2
:102ED000427B012A06D1074A1C3212680A43054B7D
:102EE0001C331A60034A126822F00102014B1A6077
:102EF00010BD00000066004070B504460D46002677
:102F000060692840002871D0B5F5807F5CD010DC66
:102F1000082D35D006DC012D20D0022D24D0042D23
:102F200072D127E0102D31D0202D35D0402D6BD11E
:102F300038E0B5F5004F60D009DCB5F5007F49D029
:102F4000B5F5806F4CD0B5F5006F5DD14FE0B5F5AC
:102F5000803F2DD0B5F5003F56D12FE0A0682D4918
:102F600000F0B6FC064651E0E068032100F0B0FC3A
:102F700006464BE0E068082100F0AAFC064645E062
:102F8000E068102100F0A4FC06463FE02069032120
:102F900000F09EFC064639E02069082100F098FC0C
:102FA000064633E02069102100F092FC06462DE031
:102FB0006068082100F08CFC064627E0606810215C
:102FC00000F086FC064621E0A069012100F080FCAB
:102FD00006461BE0A069022100F07AFC064615E0D7
:102FE000A069042100F074FC06460FE00FE0A06920
:102FF000702100F06DFC064608E06068042100F0D6
:1030000067FC064602E0FFE7002600BF00E000265E
:10301000304670BD010101001AB143690B434361A1
:1030200002E043698B434361704730B5024600209C
:103030000023146824F002041460146844F00104AE
:10304000146000E05B1C546804F001041CB94FF6E6
:10305000FF74A342F6D1546804F001040CB90020B7
:103060006CE08C79012C04D1146844F08004146065
:1030700003E0146824F080041460CC79012C04D19E
:10308000146844F04004146003E0146824F0400421
:1030900014600C7A012C04D1146844F020041460EC
:1030A00003E0146824F0200414604C7A012C04D14D
:1030B000146844F01004146003E0146824F0100451
:1030C00014608C7A012C04D1146844F00804146054
:1030D00003E0146824F008041460CC7A012C04D1B5
:1030E000146844F00404146003E0146824F0040439
:1030F00014608C78A407CD7844EA05640D7944EA1D
:1031000005444D7944EA05540D886D1E2C43D46165
:10311000146824F001041460002300E05B1C546870
:1031200004F001041CB14FF6FF74A342F6D15468B9
:1031300004F001040CB1002000E0012030BD0000CB
:1031400000B585B040F21160009000208DF80800B5
:103150008DF8090008208DF80A00134800788DF8D2
:103160000B00114841788DF80C10408801128DF841
:103170000D100D4881788DF80E10808801128DF8A1
:103180000F10094801798DF81010C08801128DF8D0
:103190001110054881798DF812106946034800F036
:1031A0007FF805B000BD0000200500200068004049
:1031B00010B500F5D87303EB01131B6803F004038B
:1031C0001372137A53B900F5D87303EB01131B681C
:1031D00040F2FF7404EA5353136009E000F5D8731A
:1031E00003EB01131B686FF0604404EAD3035360E0
:1031F00000F5D87303EB01131B6803F0020353724D
:1032000000F5D87303EB01135B6803F00F039372AF
:1032100000F5D87303EB01135B681B0AD37400F548
:10322000D87303EB01139B68D37200F5D87303EBDB
:1032300001139B681C0A147300F5D87303EB011388
:103240009B681C0C547300F5D87303EB01139B6847
:103250001B0E937300F5D87303EB0113DB68D37374
:1032600000F5D87303EB0113DB681C0A147400F536
:10327000D87303EB0113DB681C0C547400F5D8738E
:1032800003EB0113DB681B0E937421B9C36843F091
:103290002003C36003E0036943F02003036110BD12
:1032A00010B502460020936803F08063B3F1806F8D
:1032B00000D110E0936803F00063B3F1006F01D117
:1032C000012008E0936803F08053B3F1805F01D1DF
:1032D000022000E00420042874D002F5C07303EB40
:1032E00000131B6803F0010402F5C07303EB001325
:1032F0001C600B7A7BB94B7A0C8843EA445302F585
:10330000C07404EB00142468234302F5C07404EB7A
:103310000014236010E00B7A4C6843EAC4034C7A33
:10332000234302F5C07404EB00142468234302F520
:10333000C07404EB001423608B7A03F00F038B72CC
:1033400002F5C07303EB00135B6823F00F0402F572
:10335000C07303EB00135C6002F5C07303EB001352
:103360005B688C7A234302F5C07404EB001463603D
:103370008B7B1C064B7B44EA03440B7B44EA032310
:10338000CC7A234302F5C07404EB0014A3608B7C59
:103390001C064B7C44EA03440B7C44EA0323CC7BAD
:1033A000234302F5C07404EB0014E36002F5C0731C
:1033B00003EB00131B6843F0010402F5C07303EB39
:1033C00000131C6010BD000010B586B0044640F22A
:1033D0000520019000208DF80C008DF80D000820CC
:1033E0008DF80E00E07A8DF80F00217B8DF810101B
:1033F000617B8DF81110A17B8DF81210E17B8DF8A7
:103400001310217C8DF81410617C8DF81510A17CAF
:103410008DF8161001A90248FFF742FF06B010BD53
:103420000068004070B59FEDAD2AB0EE421A9FEDE6
:10343000AB2AF0EE421A9FEDA92AF0EE420A01688B
:10344000098902EE101AB8EE422AF0EE420A002173
:1034500013E000F5017202EB810292ED002A00F503
:10346000057202EB8102D2ED002A32EE622A9C4AFA
:1034700002EB810282ED002A491C0429E9DB984D08
:1034800095ED002ABDEEC22A12EE105A2CB2002C85
:1034900001DB254600E06542914E96ED012ABDEE26
:1034A000C22A12EE106A33B2002B01DB1E4600E086
:1034B0005E422E448A4D95ED022ABDEEC22A12EEDE
:1034C000105A2AB2002A01DB154600E055422E446C
:1034D000834D95ED032ABDEEC22A12EE105A29B291
:1034E000002901DB0D4600E04D42354402EE105A42
:1034F000B8EEC22A7B4D85ED002A90ED162ABDEE6E
:10350000C22A12EE105A2CB2002C01DB264600E033
:10351000664290ED282ABDEEC22A12EE105A2BB256
:10352000002B01DB1D4600E05D422E4490ED3A2A5F
:10353000BDEEC22A12EE105A2AB2002A01DB15464D
:1035400000E055422E4490ED4C2ABDEEC22A12EE08
:10355000105A29B2002901DB0D4600E04D423544E6
:1035600002EE105AB8EEC22AF0EE421AC168C97CC7
:10357000C1F34011F1B35C490988491C09B25A4AA8
:1035800011801146B1F9001064293ADD002136E0BE
:1035900001EBC10300F1380202EBC30292ED082AED
:1035A000DFED522AB4EEE22AF1EE10FA0AD89FEDCE
:1035B0004F2A01EBC10300F1380202EBC30282ED96
:1035C000082A1AE001EBC10300F1380202EBC30242
:1035D00092ED082ADFED462AB4EEE22AF1EE10FA67
:1035E0000BDB9FED432A01EBC10300F1380202EB34
:1035F000C30200E005E082ED082A4A1CD1B204298A
:10360000C6DBC168C97CC1F34011E9BB0021364A61
:1036100011809FED382AF4EEC20AF1EE10FA10D2B2
:103620009FED342AC0EE822A22EEA22AB0EE421A80
:103630009FED312A21EE022AF1EE002A22EE220A23
:1036400001E09FED2E0AF4EEC01AF1EE10FA31DD22
:103650002349D1ED002A234991ED003A82EE832AD5
:1036600022EE002A80ED162A1D49D1ED012A1D49BE
:1036700091ED003A82EE832A22EE002A80ED282A7C
:103680001749D1ED022A00E026E0164991ED003AF3
:1036900082EE832A22EE002A80ED3A2A1049D1EDEB
:1036A000032A104991ED003A82EE832A22EE002A85
:1036B00080ED4C2A00210DE001EBC10300F138023E
:1036C00002EBC30292ED082A0D4A02EB810282ED61
:1036D000002A491C0429EFDB70BD00000000000037
:1036E000A407002064000020700000200080BBC5FB
:1036F0000080BB450000704200401C4600401C4753
:10370000B4070020322007F005FD1F4806F062F8DC
:1037100039E01D48806800780421B1EB101F02D108
:1037200001201A49086000F0A9FD174805F08CFF38
:10373000154805F0F1FF144805F0AEFC124C94ED6D
:103740004C0ABDEEC00A10EE104A23B20E4C94EDA6
:103750003A0ABDEEC00A10EE104A22B20A4C94EDAD
:10376000280ABDEEC00A10EE104A21B2064C94EDB4
:10377000160ABDEEC00A10EE104A20B2FFF7DAFAC0
:10378000012007F0C7FCC4E77005002050000020AE
:1037900070B52DED068B0446122518E0681E04F561
:1037A000947101EBC00090ED000B084600EBC500E2
:1037B00080ED000B681E04F1080101EBC00090EDE4
:1037C000000B084600EBC50080ED000B6D1E002DC0
:1037D000E4DC94ED000B84ED020B94ED022BB0EED3
:1037E000420AF0EE620A384890ED002BB0EE421A21
:1037F000F0EE621A53EC102B51EC110BFDF7B7F9F8
:1038000004F5947203C2012549E004F5947000EBBD
:10381000C50090ED002BB0EE420AF0EE620A2B4894
:1038200000EBC50090ED002BB0EE421AF0EE621AEC
:1038300053EC102B51EC110BFDF799F941EC180BDF
:1038400004F1080000EBC50090ED002BB0EE420A39
:10385000F0EE620A1C4800EBC50090ED002BB0EEC4
:10386000421AF0EE621A53EC102B51EC110BFDF7DB
:103870007EF941EC1A0B94ED4A1BB0EE410AF0EED2
:10388000610A53EC102BFDF7CBF841EC190B53EC0C
:10389000182BFDF766F904F5947203C26D1C132D05
:1038A000B3DB94ED4A0B84ED920B94ED921BB0EEDA
:1038B000410AF0EE610A51EC100BFDF79BFA00EEA5
:1038C000100ABDEC068B70BDD0C7000870C8000898
:1038D0000246002002EA01030BB1012000E00020B3
:1038E000704700000246094B9A4201D2084801E0A5
:1038F0000648103801F000531BB1064B0B40C36063
:1039000002E0044B0B4083607047000010640240EB
:10391000006002407D0F7D0F0246094B9A4201D2A2
:10392000084801E00648103801F000531BB1064B6F
:103930000B40C36002E0044B0B4083607047000003
:1039400010640240006002407D0F7D0F21B10268CB
:1039500042F00102026003E0026822F0010202600C
:1039600070470000016821F0010101600021016041
:1039700041608160C1600161212141614A49884201
:1039800004D13D21484A103A91608CE046491831F3
:10399000884205D14FF47461434A103A916082E045
:1039A00041493031884205D14FF474113E4A103AF2
:1039B000916078E03C494831884205D14FF074610C
:1039C000394A103A91606EE037496031884204D13B
:1039D0003649354A103AD16065E03349783188423A
:1039E00004D13349304A103AD1605CE02E4990311D
:1039F000884204D12F492C4A103AD16053E02A4919
:103A0000A831884205D14FF03D51274A103AD16084
:103A100049E02949884204D13D21274A083A1160EA
:103A200041E025491831884205D14FF47461224A9A
:103A3000083A116037E020493031884205D14FF40F
:103A400074111D4A083A11602DE01B494831884223
:103A500005D14FF07461184A083A116023E0164905
:103A60006031884204D11149134A121F11601AE0D3
:103A700011497831884204D10D490F4A121F116053
:103A800011E00D499031884204D10A490A4A121FB7
:103A9000116008E00849A831884204D14FF03D5137
:103AA000054A121F11607047106002403D0000205F
:103AB000400F002000003D201064024021B1026848
:103AC00042F48022026003E0026822F48022026055
:103AD000704722B1036843F40023036003E00368E6
:103AE00023F400230360016170470146486880B2F7
:103AF0007047014600200A6802F400220AB1012042
:103B000000E000207047000010B500220268134B4F
:103B10001A40CC680B6823434C6923438C692343C8
:103B2000CC6923430C6A23434C6A23438C6A2343A6
:103B30004C6B23438C6B23431A430260426922F08F
:103B40000702D1E90B3423431A4342610B694360F6
:103B50004B6883608B68C36010BD00003F801CF021
:103B6000416070470021016041608160C160016176
:103B700041618161C161016241628162C16201632F
:103B8000416381637047704710B518E06948007859
:103B9000401C684908700846007800EBC000664980
:103BA00001EB8000C07CC0F3401040B1634890ED51
:103BB000000AF7EE000A30EE200A80ED000A5D48A8
:103BC00000780728E2DD5C4890F83700C0F3401029
:103BD00028B14FF480515A4800F0B5FD04E04FF48D
:103BE0008051574800F0ADFD5348C07CC0F34010F1
:103BF00028B14FF40061524800F0A5FD04E04FF4F5
:103C000080514F4800F09DFD4E480068401C4D49D2
:103C1000086008460068B0F5807F0CDD4FF48061D5
:103C2000474800F08EFD48480078C01C464908709F
:103C300000204449086044480078062807D14FF422
:103C400080613F4800F07FFD00203F4908703F48F9
:103C500090ED000AB5EEC00AF1EE10FA3ED13C48F4
:103C600090ED000AF7EE000A30EE200A80ED000A1F
:103C700090ED000ADFED370AB4EEE00AF1EE10FA3B
:103C800011DD0421344800F05CFD344890ED000A59
:103C9000F7EE000A30EE200A80ED000A9FED300AB0
:103CA0002B4880ED000A2D4890ED000AF0EE000A46
:103CB000B4EE600AF1EE10FA10D19FED290A80ED02
:103CC000000A0421244800F03EFD264890ED000A39
:103CD000F7EE000A30EE200A80ED000A214890ED50
:103CE000000A1648D0ED000AB4EE600AF1EE10FAB0
:103CF0001ED10421184800F024FD144890ED000A5C
:103D0000F7EE000A30EE200A80ED000A90ED000A7E
:103D1000DFED150AB4EEE00AF1EE10FA08DB9FEDD4
:103D2000100A80ED000A9FED0E0A0E4880ED000A91
:103D300010BD000025000020600300200C000020C2
:103D400000080240280000202C0000201C00002059
:103D5000100000200000C842000C024014000020A7
:103D600000000000180000200000484310B5044681
:103D700004EBC400454901EB8000006804EBC4017A
:103D8000424A02EB8101486008F0BAF804EBC40132
:103D90003E4A02EB8101086004EBC400114601EBCE
:103DA0008000C07CC0F38010B0B104EBC40001EB14
:103DB0008000C07C20F0400004EBC40102EB8101D4
:103DC000C87404EBC400114601EB8000006804EBEA
:103DD000C40102EB8101C86004EBC4002B4901EB74
:103DE0008000806990B304EBC401284A02EB810192
:103DF0008869804758B304EBC400244901EB800074
:103E0000C07C20F02000203004EBC4011F4A02EBEC
:103E10008101C87404EBC400114601EB8000C07C32
:103E200020F08000803004EBC40102EB8101C874F3
:103E300004EBC400114601EB8000006A28B304EBD8
:103E4000C40102EB8101086A80471EE00FE0FFE732
:103E500004EBC4000D4901EB8000C07C20F0800021
:103E600004EBC401094A02EB8101C8740DE004EBC4
:103E7000C400064901EB8000C07C20F0800004EB08
:103E8000C401024A02EB8101C87410BD6003002026
:103E900010B58CB00446302258496846FCF79CFDAA
:103EA00000209EE000EB40013DF8112000EBC00136
:103EB000534B03EB8101098A62F30B0100EBC00253
:103EC00003EB8202118200EB40016A4602EB4101E2
:103ED0004A8800EBC00103EB8101B1F8111062F3D5
:103EE0000F1100EBC00203EB8202A2F8111000EBED
:103EF00040016A4602EB4101097900EBC00203EB85
:103F00008202D27C61F3440200EBC00103EB810129
:103F1000CA74002100EBC00203EB8202916100EB46
:103F2000C00203EB8202D16100EBC00203EB82020C
:103F3000116200EBC0011A4602EB8101C97C21F03D
:103F40000101491C00EBC00203EB8202D17400EBBB
:103F5000C0011A4602EB8101C97C21F02001203109
:103F600000EBC00203EB8202D17400EBC0011A46E1
:103F700002EB8101C97C21F04001403100EBC0021D
:103F800003EB8202D17400EBC0011A4602EB8101FF
:103F9000C97C21F08001803100EBC00203EB82027A
:103FA000D1749FED180A10EE101A00EBC00203EB5B
:103FB0008202516100EBC0011A4602EB81010C60E4
:103FC00000EBC00102EB81014C6000EBC00102EB91
:103FD00081018C6000EBC00102EB8101CC60411CCF
:103FE000C8B20828FFF65EAF074905480166002100
:103FF0004166064981660CB010BD00006CC4000823
:104000006003002000000000FD680008B1AB00085C
:1040100007F076FF9449086008460068FFF738FF0C
:10402000392007F077F81EE107F06AFF8E49086033
:1040300008208E4908708E4890F8330120F0400126
:104040008B4880F8331190F8330120F02001884824
:1040500080F833110024F9E004EBC400844901EB3B
:104060008000C07C00F0010000B9EEE004EBC40069
:104070007F4901EB800000687B490968081A04EB5E
:10408000C4017B4A02EB8101098AC1F30B0188421A
:1040900050D904EBC400114601EB8000C07CC0F392
:1040A000401008BB04EBC40001EB8000C07C20F092
:1040B0004000403004EBC40102EB8101C87404EB02
:1040C000C400114601EB8000C07C20F020002030AD
:1040D00004EBC40102EB8101C8746348006804EB7F
:1040E000C40102EB8101886004EBC400604901EB6C
:1040F0008000C07CC0F343005C49097801EBC1013A
:104100005B4A02EB8101C97CC1F34301884201DDB6
:1041100056490C7004EBC400554901EB8000C0699E
:10412000002806D004EBC401514A02EB8101C869A2
:10413000804789E004EBC4004D4901EB8000C06872
:1041400049490968081A04EBC401494A02EB810194
:10415000B1F81110B0EB111F1BD204EBC4001146D3
:1041600001EB8000C07C20F0400004EBC40102EBB6
:104170008101C87404EBC400114601EB8000C07CCF
:1041800020F02000203004EBC40102EB8101C87450
:104190005AE004EBC400364901EB8000C07C20F0FB
:1041A000400004EBC401324A02EB8101C87404EB05
:1041B000C400114601EB8000C07CC00968B104EB6B
:1041C000C40001EB8000C07C20F02000203004EB14
:1041D000C40102EB8101C8740DE004EBC400244962
:1041E00001EB8000C07C20F0200004EBC401204AD9
:1041F00002EB8101C87404EBC4001D4901EB80008F
:10420000006804EBC4011A4A02EB81014968884244
:104210001AD904EBC400114601EB8000006804EBDE
:10422000C40102EB81014968401A00EE100AF8EE61
:10423000400A9FED101A81EE200A10EE100A04EBDE
:10424000C40102EB8101486100BF641C082CFFF629
:1042500003AFFFF799FC0A2006F05CFF002006F090
:104260008BFD05490860DFE62000002024000020C7
:104270006003002000007A440400002010B52DEDFA
:104280000C8B684890ED040A674880ED000A674887
:1042900090ED010ADFED660A30EE200ADFED650AD7
:1042A00020EE200ADFED640A80EE201A11EE104A9B
:1042B0002046FCF75BFD41EC1D0BB0EE4D0AF0EE25
:1042C0006D0A03F0CDFEB0EE40BAF0EE60BA574989
:1042D000B1F90200FCF72CFD41EC1C0B53EC1B2B3D
:1042E000FCF745FC41EC190B504890ED010ADFED5D
:1042F000500A30EE200ADFED4F0A20EE200ADFEDF3
:104300004E0A80EE201A11EE104A2046FCF72EFDD0
:1043100041EC1D0BB0EE4D0AF0EE6D0A03F010FFFC
:10432000B0EE40BAF0EE60BA4049B1F90000FCF7D7
:10433000FFFC41EC1C0B53EC1B2BFCF718FC41EC75
:104340001A0B53EC192BFCF70CFC41EC180BFCF787
:1043500051FD3A490860354890ED010ADFED340A15
:1043600030EE200ADFED330A20EE200ADFED320ABC
:1043700080EE201A11EE104A2046FCF7F7FC41ECC3
:104380001D0BB0EE4D0AF0EE6D0A03F0D9FEB0EE53
:1043900040BAF0EE60BA2549B1F90200FCF7C8FC5A
:1043A00041EC1C0B53EC1B2BFCF7E1FB41EC190B14
:1043B0001E4890ED010ADFED1E0A30EE200ADFED07
:1043C0001D0A20EE200ADFED1C0A80EE201A11EEF5
:1043D000104A2046FCF7CAFC41EC1D0BB0EE4D0A1A
:1043E000F0EE6D0A03F03CFEB0EE40BAF0EE60BABB
:1043F0000E49B1F90000FCF79BFC41EC1C0B53EC9F
:104400001B2BFCF7B4FB41EC1A0B53EC192BFCF7FC
:1044100007FB41EC180BFCF7EDFC08494860BDECCC
:104420000C8B10BDC81B0020A40000203000002011
:1044300000003442C3F54840000034439C00002093
:1044400001490860704700000C3C024070B504460A
:104450000A460026092502B909E0012A01D11602FF
:1044600005E0022A01D1160201E04FF4407600F087
:104470009DF80546092D28D11548006820F44070A4
:104480001349086008460068304308600846006821
:1044900020F0F80008600846006844F00201084374
:1044A0000B4908600846006840F48030086000F05E
:1044B0007DF805460648006820F0020004490860BF
:1044C0000846006820F0F8000860284670BD00002B
:1044D000103C024009201349096801F48031B1F50C
:1044E000803F01D101201CE00E49096801F0100154
:1044F00009B1062015E00B49096801F4807109B182
:1045000002200EE00749096801F0E00109B1072027
:1045100007E00449096801F0020109B1082000E040
:10452000092070470C3C02400348006840F00040FE
:104530000149086070470000103C024030B5024657
:104540000C46092500F032F80546092D17D10D4813
:10455000006820F440700B49086008460068086055
:104560000846006840F001000860147000F01EF872
:1045700005460448006820F001000249086028460A
:1045800030BD0000103C02400548006800F00040CB
:1045900028B1044802490C39086003480860704794
:1045A000103C024023016745AB89EFCD08B50920D7
:1045B0000090FFF78FFF009002E0FFF78BFF009065
:1045C0009DF800000128F8D09DF8000008BD10B546
:1045D000FFF7DAFFF120FFF733FF01215820FFF743
:1045E00035FFFFF7A1FF10BD0246054B002103E098
:1045F000585C5054481CC1B23029F9DB0020704788
:1046000000000E0870B505460A4EFFF7E0FFFFF701
:10461000BBFF002408E0E120FFF712FF295D3019FD
:10462000FFF78CFF601CC4B2302CF4DBFFF77CFF7B
:10463000002070BD00000E0810B5044604B910BD7E
:10464000A28811B22268128810B205F017FA00EEA3
:10465000100AB8EEC00A0448D0ED000A20EE200A85
:1046600084ED020A00BFEAE748000020F0B50A46E0
:1046700000210023002400BF3DE0012505FA01F3DD
:10468000156805EA03049C4234D105684F000326EF
:10469000BE40B543056015794E00B5400668354308
:1046A00005601579012D02D01579022D16D1856886
:1046B0004F000326BE40B543856055794E00B54096
:1046C000866835438560456801268E40B543456060
:1046D000456896798E40B6B235434560C5684F004F
:1046E0000326BE40B543C560D5794E00B540C668C7
:1046F0003543C560491C1029BFD3F0BDF0B5002378
:1047000000244D07ED0E02FA05F3CE1000F120054E
:1047100055F826504E07F70E0F26BE40B543CF1072
:1047200000F1200646F82750CE1000F1200555F87C
:10473000265045EA0304CE1000F1200545F8264036
:10474000F0BD4183704701837047000010B52DED27
:10475000048B244A911E881E00F00CFD21480C3861
:10476000B0F9080000EE100AF8EEC00A1E48B0F9D1
:10477000080000EE100AB8EEC00A30EEC00AB0EE33
:10478000408A18480C38B0F90A0000EE100AF8EE1A
:10479000C00A1548B0F90A0000EE100AB8EEC00AC7
:1047A00030EEC00AF0EE408A0E480C38B0F90C002A
:1047B00000EE100AF8EEC00A0B48B0F90C0000EE4B
:1047C000100AB8EEC00A30EEC00AB0EE409AB0EE61
:1047D000491AF0EE680AB0EE480A00F08DF8BDEC18
:1047E000048B10BD741B00207C1B002010B52DED28
:1047F000088B05F05BFB0446FCF7ABFA41EC180BA9
:104800004FF0E02040694FF0E0218969401A4FF4F1
:104810007A7148434FF0E0214969B0FBF1F420463A
:10482000FCF797FA9FED090B53EC102BFCF79FF95F
:1048300053EC182BFCF7F4F841EC190BB0EE490AD5
:10484000F0EE690ABDEC088B10BD0000FCA9F1D2A6
:104850004D62503F10B5044605F0D0F8206041F29B
:10486000C850A08010BD000010B5044605F05CF9EA
:104870000B49087000F0BCF90949488000F0BEF906
:104880000749888000F0AEF90549C88000F0BCF9FE
:104890000349487005F010F90149886010BD000017
:1048A00064050020322006F035FC1048FFF7D2FFE7
:1048B0001AE00E48FFF7D8FFFEF742FC0B48FFF75F
:1048C000BBFE0B4890ED000A0A4880ED000A00216B
:1048D00090ED000ABDEEC00A10EE100A00B2FEF71D
:1048E0005BFA012006F016FCE3E700005405002007
:1048F000380000204400002010B52DED048BB0EEF0
:10490000408AF0EE608AB0EE419A18EE100AFCF789
:104910002DFA134A03C218EE900AFCF727FA104A40
:1049200002F5147203C219EE100AFCF71FFA0C4AC2
:1049300002F5946203C20A48FEF72AFF094880ED97
:10494000040A0948FEF724FF064880ED050A0748D7
:10495000FEF71EFF034880ED060ABDEC048B10BD78
:1049600008140020401B002058160020A818002022
:1049700000BFFEE710B5002424E0204A911E881EE7
:1049800000F0F8FB1D480C38B0F908001C49096814
:1049900008441B49086019480C38B0F90A00194945
:1049A000096808441749086014480C38B0F90C002D
:1049B00015490968084414490860032005F03AFACB
:1049C000601CC4B2C82CD8DB0D480068C82190FB1D
:1049D000F1F000B20D4908810A480068C82190FB37
:1049E000F1F000B20949488107480068C82190FBEE
:1049F000F1F000B20549888110BD0000741B002051
:104A0000980200209C020020A00200207C1B0020B5
:104A100010B500BF00F048FB0028FBD1FFF7AAFF4C
:104A200004F084F9FCF78AFB10BD00003BE0FCF7C2
:104A3000FBFCFFF78BFE04F02BFB1B4800F008FC8F
:104A4000FCF74EFD194890ED040ADFED190A20EE3F
:104A5000200ABDEEC00A10EE100A00B21249143945
:104A60000880124890ED050ADFED110A20EE200AB9
:104A7000BDEEC00A10EE100A00B248800B4890ED5F
:104A8000060ADFED0B0A20EE200ABDEEC00A10EE8A
:104A9000100A00B28880012006F03CFB002006F0DE
:104AA0006BF904490860C2E7DC1B0020401B0020B2
:104AB000F8C1F93C8C0200201CB506481E210023D9
:104AC0004FF40072CDE9001003A1064807F0D8F9B1
:104AD0001CBD000090020020494D555F7461736B4E
:104AE000000000002D4A00083EE020480068401CFD
:104AF0001E4908601E4800781D49497848401C49F5
:104B0000897848401A49C978484019490979484084
:104B10001749497948401649897948401449C97963
:104B200048401349087200240DE01148015D114806
:104B300002F00DFD00BF80210E4802F03DFC002870
:104B4000F9D0601CC4B2092CEFDB09480079401C85
:104B50000749087108460079042801D1012008712D
:104B60000548006806F0D6FABFE70000B80000204C
:104B7000AC00002000480040BC00002008B5A82080
:104B800004F090FE4FF4407001F004FC06F006F8CB
:104B90004FF4E13002F0EEFC04F09EFF00F0ECF880
:104BA000FFF736FF4FF480610D48FFF7CAFD4FF461
:104BB00000610B48FFF7C7FD0020032308221946B8
:104BC0000090FDF71FFF00200323082219460090E4
:104BD000FEF71CF84FF47A7004F086FE08BD000062
:104BE000000802400148008870470000F1000020E2
:104BF00001484089704700002E0900200148808943
:104C0000704700002E090020014800780009704715
:104C1000E808002070B504465CB12546B5F80100EF
:104C200000F10901284606F0DFFC10B1204604F02F
:104C30008BFF70BD08B596E000235A1E69464A48AE
:104C4000006806F013FE4948007858B99DF8000046
:104C5000A52807D10120454908709DF80000444966
:104C600008706FE041480078012807D102203F49D1
:104C700008709DF800003E49487063E03B480078AA
:104C8000022816D10320394908709DF800003849E0
:104C9000887008464078001D9DF8001040EA012009
:104CA000324948800846408864284BDD002008705F
:104CB00048E02E480078032807D104202B490870CB
:104CC0009DF800002A49C8703CE028480078042874
:104CD00014D10520254908709DF800002449087169
:104CE0000521234806F0A0FC18B100201F49888048
:104CF00028E000201D498880087023E01B480078C8
:104D000005281AD119484088002816DD1748408820
:104D1000401E164948809DF80020084680888988F2
:104D2000491C124B9980401D11490A54184640886D
:104D300040B906201946087004E000200B490870AD
:104D40004880888009480078062807D10848FFF77E
:104D500061FF00200549087048808880002006F027
:104D60000BF80449086067E788000020D0000020A5
:104D700084080020D80000201CB50121042001F087
:104D800047FC0121042001F043FC0121042001F033
:104D90003FFC0121082001F03BFC4FF480600090B3
:104DA00001208DF8040000208DF8060001208DF808
:104DB000070000208DF8050069461E48FFF756FCE5
:104DC0004FF40060009001208DF8040000208DF861
:104DD000060001208DF8070000208DF805006946C7
:104DE0001448FFF743FC4FF48050009001208DF8E9
:104DF000040000208DF8060001208DF80700002037
:104E00008DF8050069460B48FFF730FC0420009040
:104E100001208DF8040000208DF8060001208DF897
:104E2000070000208DF8050069460348FFF71EFCC7
:104E30001CBD000000080240000C024010B5002418
:104E40007521012000F03CFA04460A2004F0F2FF2C
:104E5000702C7DD180226B21012000F09BFA0A206A
:104E600004F0E8FF00226B21012000F093FA0A20F1
:104E700004F0E0FF07226821012000F08BFA0A20ED
:104E800004F0D8FF03226B21012000F083FA0A20EE
:104E900004F0D0FF00226C21012000F07BFA0A20F0
:104EA00004F0C8FF00221A21012000F073FA0A2042
:104EB00004F0C0FF00221921012000F06BFA0A2043
:104EC00004F0B8FF00221A21012000F063FA0A2042
:104ED00004F0B0FF10221B21012000F05BFA0A2031
:104EE00004F0A8FF00221C21012000F053FA0A2040
:104EF00004F0A0FF01223821104600F04BFA0A20EE
:104F000004F098FF01223721104600F043FA0A20EE
:104F100004F090FF0D222721012000F03BFA0A2027
:104F200004F088FF0D226721012000F033FA0A20E7
:104F300004F080FF0D222721012000F02BFA0A2027
:104F400004F078FF01226B21104600F023FA00E004
:104F50000BE00A2004F06EFF00226C21012000F01B
:104F600019FA0A2004F066FF01E0012010BD0020BC
:104F7000FCE710B500247521022000F0A1F90446D9
:104F80000A2004F057FF702C7DD180226B21022073
:104F900000F000FA0A2004F04DFF00226B210220ED
:104FA00000F0F8F90A2004F045FF072268210220EA
:104FB00000F0F0F90A2004F03DFF03226B210220EB
:104FC00000F0E8F90A2004F035FF00226C210220ED
:104FD00000F0E0F90A2004F02DFF00221A2102203F
:104FE00000F0D8F90A2004F025FF00221921022040
:104FF00000F0D0F90A2004F01DFF00221A2102203F
:1050000000F0C8F90A2004F015FF10221B2102202D
:1050100000F0C0F90A2004F00DFF00221C2102203C
:1050200000F0B8F90A2004F005FF0122382102201F
:1050300000F0B0F90A2004F0FDFE01223721022021
:1050400000F0A8F90A2004F0F5FE0D222721022025
:1050500000F0A0F90A2004F0EDFE0D2267210220E5
:1050600000F098F90A2004F0E5FE0D222721022025
:1050700000F090F90A2004F0DDFE01226B210220ED
:1050800000F088F900E00BE00A2004F0D3FE0022D3
:105090006C21022000F07EF90A2004F0CBFE01E032
:1050A000012010BD0020FCE710B500F09DF9FFF7CE
:1050B000C5FE10B9FFF75DFF08B1012010BD00204B
:1050C000FCE770B586B004460D46164604AB0622D2
:1050D0003B21012000F020F910B1012006B070BD85
:1050E0009DF811009DF8101040EA012000B2ADF8C3
:1050F00004009DF813009DF8121040EA012000B250
:10510000ADF806009DF815009DF8141040EA012046
:1051100000B2ADF8080004AB06223B21022000F0EB
:10512000FBF808B10120D9E79DF811009DF8101097
:1051300040EA012000B2ADF80A009DF813009DF886
:10514000121040EA012001B2ADF80C109DF81500D4
:105150009DF8141040EA012001B2ADF80E10BDF820
:1051600004002080BDF806002880BDF808003080CB
:105170000020B3E770B586B004460D46164604AB72
:1051800006224321012000F0C7F810B1012006B02B
:1051900070BD9DF811009DF8101040EA012000B28A
:1051A000ADF804009DF813009DF8121040EA0120AC
:1051B00000B2ADF806009DF815009DF8141040EA05
:1051C000012000B2ADF8080004AB06224321022002
:1051D00000F0A2F808B10120D9E79DF811009DF870
:1051E000101040EA012000B2ADF80A009DF813004B
:1051F0009DF8121040EA012001B2ADF80C109DF8A4
:1052000015009DF8141040EA012001B2ADF80E100F
:10521000BDF90420BDF90C10501800EBD0714910F5
:1052200009B22180BDF90610BDF90A20881A00EBE9
:10523000D071491009B22980BDF90820BDF90E10BE
:10524000501800EBD071491009B2318000209EE760
:1052500030B52DED068B81B004466B46022241210C
:10526000012000F059F89DF801009DF8001040EA77
:10527000012005B22846FBF75BFD41EC1A0B9FEDC0
:105280000C0B53EC102BFBF7E4FC41EC190B9FEDDE
:105290000A0B53EC102BFBF7C3FB41EC180BFBF78D
:1052A000A9FD2060002001B0BDEC068B30BD0000E0
:1052B00052B81E85EBDD74400000000000002A405B
:1052C00070B504460D46012C04D110211048FFF79B
:1052D00038FA05E0022C03D110210E48FFF731FA0D
:1052E00045F0800001F052FCFF2001F04FFC064623
:1052F000012C04D110210648FFF725FA05E0022C05
:1053000003D110210348FFF71EFA304670BD00009C
:1053100000080240000002402DE9F04104460F461B
:1053200015461E46012C04D110211848FFF709FA32
:1053300005E0022C03D110211548FFF702FA47F0CF
:10534000800001F023FC0FE0012D04D1FF2001F0CB
:105350001DFC307003E0FF2001F018FC3070761C5B
:10536000781CC7B2681EC5B2002DEDD1012C04D146
:1053700010210648FFF7E7F905E0022C03D11021C0
:105380000348FFF7E0F90020BDE8F0810008024083
:105390000000024070B504460D461646012C04D1AB
:1053A00010210F48FFF7CDF905E0022C03D11021A1
:1053B0000C48FFF7C6F9284601F0E8FB304601F03B
:1053C000E5FB012C04D110210548FFF7BCF905E0ED
:1053D000022C03D110210348FFF7B5F9002070BD5E
:1053E00000080240000002401CB50121072001F026
:1053F0000FF90121880301F03BF9102000900120F2
:105400008DF8040000208DF8060003208DF80500BB
:1054100069461848FFF72AF91020009001208DF8FE
:10542000040000208DF8060003208DF80500694671
:105430001148FFF71BF9012000908DF804008DF84A
:10544000070000208DF8060003208DF8050069464E
:105450000A48FFF70BF901210848FFF772F901F03C
:1054600033FB10210348FFF76EF910210248FFF7C4
:105470006AF91CBD0008024000000240000402401E
:105480000FB400B595B09DED260B8DED060B9DED8F
:10549000060B51EC100B81F00041CDE908019DEDA8
:1054A0001E0B8DED060B9DED060B53EC102B9DEDA9
:1054B000080B51EC100BFBF76DFC7CD29DED260B1D
:1054C0008DED080B9DED1E0B8DED060B9DED080B74
:1054D00053EC102B9DED060B51EC100BFBF772FCFF
:1054E0006AD29DED260B8DED060B9DED060B51EC62
:1054F000100B81F00041CDE908019DED160B8DEDFB
:10550000060B9DED060B53EC102B9DED080B51EC9B
:10551000100BFBF73FFC7DD29DED160B8DED000BC4
:105520009DED000B53EC102B9FEDFE0B51EC100B7F
:10553000FBF776FACDE902019DED1E0B8DED000B18
:105540009DED000B53EC102B9DED020B51EC100B5D
:10555000FBF766FACDE904019DED260B8DED020BFC
:105560009DED020B53EC102B9DED040B51EC100B39
:10557000FBF756FACDE906019DED060B02F044FE5D
:105580008DED080B9FEDE90B53EC102B9DED080BF7
:1055900051EC100BFBF7EBFACDE912019FEDE50B97
:1055A00053EC102B9DED120B51EC100BFBF751FB44
:1055B000CDE90A0101E0C9E229E19DED240B8DED61
:1055C000060B9DED200B8DED040B9DED060B53ECB2
:1055D000102B9DED040B51EC100BFBF7C2FACDE93B
:1055E00008019DED120B53EC102B9DED080B51ECB7
:1055F000100BFBF72EFBCDE90C019DED1A0B8DED89
:10560000060B9DED220B8DED040B9DED060B53EC6F
:10561000102B00E034E09DED040B51EC100BFBF778
:10562000A0FACDE908019DED120B53EC102B9DED76
:10563000080B51EC100BFBF70CFBCDE90E019DEDB7
:105640001C0B8DED060B9DED180B8DED040B9DEDE8
:10565000060B53EC102B9DED040B51EC100BFBF7DC
:1056600080FACDE908019DED120B53EC102B9DED56
:10567000080B51EC100BFBF7ECFACDE9100164E2DA
:105680009DED160B8DED000B9DED000B53EC102BDB
:105690009FEDA40B51EC100BFBF763FACDE902016F
:1056A0009DED1E0B8DED000B9DED000B53EC102BB3
:1056B0009DED020B51EC100BFBF7B2F9CDE90401A3
:1056C0009DED260B8DED020B9DED020B53EC102B87
:1056D0009DED040B51EC100BFBF743FACDE90601ED
:1056E0009DED060B02F090FD8DED080B9FED8F0BED
:1056F00053EC102B9DED080B51EC100BFBF737FA18
:10570000CDE912019DED220B8DED060B9DED1A0BDF
:105710008DED040B9DED060B53EC102B9DED040B52
:1057200051EC100BFBF71DFACDE908019DED120BB2
:1057300053EC102B9DED080B51EC100BFBF789FA85
:10574000CDE90A019DED180B8DED040B9DED1C0BB1
:105750008DED020B9DED040B53EC102B9DED020B18
:1057600051EC100BFBF75CF9CDE906019DED060B42
:1057700051EC100B81F00041CDE908019DED120BB9
:1057800053EC102B9DED080B51EC100BFBF761FA5D
:10579000CDE90C019DED120B51EC100B81F0004195
:1057A0009FED640B53EC102BCDE908019DED080B28
:1057B00051EC100BFBF74DFACDE90E019DED200BDE
:1057C0008DED040B9DED240B8DED020B9DED040B77
:1057D00053EC102B9DED020B51EC100BFBF720F955
:1057E000CDE906019DED060B51EC100B81F0004157
:1057F000CDE908019DED120B53EC102B9DED080B2C
:1058000051EC100BFBF725FACDE910019DE19DED60
:105810001E0B8DED060B9DED060B51EC100B81F070
:105820000041CDE908019DED160B8DED060B9DEDB8
:10583000060B53EC102B9DED080B51EC100BFBF7F6
:10584000A9FA6ED29DED160B8DED000B9DED000BB0
:1058500053EC102B9FED330B51EC100BFBF7E0F8E2
:10586000CDE902019DED1E0B8DED000B9DED000BB2
:1058700053EC102B9DED020B51EC100BFBF7D0F805
:10588000CDE904019DED260B8DED020B9DED020B84
:1058900053EC102B9DED040B51EC100BFBF7C0F8F3
:1058A000CDE906019DED060B02F0AEFC8DED080B77
:1058B0009FED1E0B53EC102B9DED080B51EC100BC4
:1058C000FBF755F9CDE912019FED1A0B53EC102BA4
:1058D0009DED120B51EC100BFBF7BBF9CDE90A0162
:1058E0009DED240B8DED060B9DED200B8DED040B36
:1058F0009DED060B53EC102B9DED040B51EC100BA2
:10590000FBF72FF9CDE908019DED120B53EC102B9D
:105910009DED080B51EC100BFBF79BF9CDE90C0149
:105920000CE04CE0000000000000F03F0000000030
:105930000000004000000000000010409DED1A0B28
:105940008DED060B9DED220B8DED040B9DED060BF1
:1059500053EC102B9DED040B51EC100BFBF701F9F0
:10596000CDE908019DED120B53EC102B9DED080BBA
:1059700051EC100BFBF76DF9CDE90E019DED1C0B01
:105980008DED060B9DED180B8DED040B9DED060BBB
:1059900053EC102B9DED040B51EC100BFBF7E1F8D1
:1059A000CDE908019DED120B53EC102B9DED080B7A
:1059B00051EC100BFBF74DF9CDE91001C5E09DED61
:1059C000160B8DED000B9DED000B53EC102B1FED16
:1059D0002B0B51EC100BFBF7C4F8CDE902019DED48
:1059E0001E0B8DED000B9DED000B53EC102B9DED70
:1059F000020B51EC100BFBF7B4F8CDE904019DED5F
:105A0000260B8DED020B9DED020B53EC102B9DED43
:105A1000040B51EC100BFBF703F8CDE906019DEDEB
:105A2000060B02F0F1FB8DED080B1FED400B53EC64
:105A3000102B9DED080B51EC100BFBF798F8CDE9FE
:105A400012019DED180B8DED060B9DED1C0B8DEDE0
:105A5000040B9DED060B53EC102B9DED040B51EC4C
:105A6000100BFBF77EF8CDE908019DED120B53EC0E
:105A7000102B9DED080B51EC100BFBF7EAF8CDE96C
:105A80000A019DED220B8DED040B9DED1A0B8DEDA2
:105A9000020B9DED040B53EC102B9DED020B51EC12
:105AA000100BFAF7BDFFCDE906019DED060B51EC99
:105AB000100B81F00041CDE908019DED120B53EC74
:105AC000102B9DED080B51EC100BFBF7C2F8CDE944
:105AD0000C019DED200B8DED040B9DED240B8DED48
